:10000000082C0020B9280000B5280000B528000001
:1000100000000000000000000000000000000000E0
:10002000000000000000000000000000B5280000F3
:100030000000000000000000B5280000B528000006
:10004000B5280000B5280000B52800005D0E0000AE
:10005000B5280000B5280000B5280000351F0000B5
:10006000B5280000B5280000B5280000B52800001C
:10007000B5280000B5280000B5280000B52800000C
:10008000B5280000B5280000B5280000B5280000FC
:10009000B5280000B5280000B5280000B5280000EC
:1000A000B5280000B5280000B5280000B5280000DC
:1000B00010B5064C2378002B07D1054B002B02D03E
:1000C000044800E000BF0123237010BD2001002080
:1000D00000000000C831000008B5084B002B03D019
:1000E0000748084900E000BF07480368002B03D019
:1000F000064B002B00D0984708BDC046000000000A
:10010000C831000024010020C831000000000000B8
:10011000EFF3108072B6BFF35F8F034B00221A70AB
:10012000434258417047C04618010020024B1A78DC
:10013000013AD2B21A707047CC030020044B1A78EF
:10014000013AD2B21A701B78024B00221A70704723
:1001500046010020D2030020002070470020704795
:1001600010B50F4B0F4C0020207018800E4BA122B1
:100170001A7020225A7002220C4958809880DA8026
:100180001881E1235B020B600823087148718B71B1
:10019000074B9847237801200133DBB2237010BD51
:1001A0006A060020CC030020DC0300203C01002074
:1001B000AD2F000008B500200149024B984708BD4B
:1001C0003C010020AD2F0000002805D0034B012288
:1001D0001A70BFF35F8F62B67047C04618010020E7
:1001E000124B60211A7850B20A40002809DA002028
:1001F000202A1AD15A78212A17D1DA88072A14D14D
:100200000FE00020202A10D15A78202A04D0101C98
:1002100022384242504108E0DA88072A05D10449D1
:10022000196104499A81996001207047740900207E
:10023000B50100003C010020F7B5364B1A78002AC2
:1002400066D1354CA047354D2C8800280FD0344B53
:10025000984784425CD0334B9847334A334B1478E9
:10026000071CE4B26100C95A002919D101E0304BE2
:10027000EEE7304E28493388013333808847002821
:1002800006D13388632B03D8381C2B4B98473FE0AB
:10029000214A9047002803D03288284B9A42F3D94C
:1002A000244B00221A80264B1B78934205D16342CF
:1002B00063411D49DBB20B7002E063425C41E4B272
:1002C000144A01231370381C1B4B9847174B6700C7
:1002D000DE5B413EFF3E731E9E41F6B2002E09D00A
:1002E0000D498847002801D00D4B00E0104B98477E
:1002F000288000E02E800D49A20124021419CB5B56
:10030000104A1149121900918120311C0F4CA0474D
:10031000F7BDC046D8030020B5140000D00300206C
:10032000C91400001101000047010020480100200D
:10033000B914000044010020C90100001F0300009F
:10034000690600204C0100205D03000045170000F5
:1003500008B5014B984708BD3902000008B50028D0
:100360000CD1074B1A7853425A41064B5200D052D7
:10037000054B1870054B1870054B984708BDC046D3
:10038000470100204801002069060020D803002012
:100390003902000010B5074B9847074A074B1B88E6
:1003A0001178074A49008C5AE41A064B9847201CDA
:1003B00010BDC04611010000D3030020CE03002071
:1003C000D4030020C901000008B5034B9847431E21
:1003D0009841C0B208BDC04695030000F0B5194B66
:1003E00085B098471849194A0C781578E4B2EDB2EF
:1003F000002D08D1164E670033880393154BFB5A26
:10040000039FBB4203D9144B9847002018E0358066
:1004100066426641F6B20E700F4F01261670B8475D
:100420000E4B281C9847A2010D4B240214190D4AAB
:100430000093A02312190220311CB3400A4CA0479C
:1004400005B0F0BD11010000D303002068060020B4
:10045000CE030020D4030020C9010000C90300001E
:10046000F1040000E80300204517000038B5134BE5
:10047000134D00242C701C70124B1C70124B1C70FE
:10048000124B1C805C80124B1C80124B9847124B05
:100490001C70124B1C70124B1C80124B1C80124B98
:1004A0009847A04209D02B780133DBB22B702B7810
:1004B000DBB2012B01D10D4A137038BDD8030020E7
:1004C0004601002069060020470100204801002065
:1004D000D00300203902000068060020D30300206A
:1004E000D4030020CE030020DD030000D20300204F
:1004F00013B500281CD10F4B1B785C426341DBB263
:1005000000290ED199011B02CB180B49101CCB18E6
:100510000A491A1C0091A02301218B40084CA047D6
:1005200006E0084A5B009952074B1870074B984742
:1005300013BDC046D3030020E8030020F1040000EF
:1005400045170000D403002068060020DD030000EA
:1005500008B50020014B984708BDC046C9030000FC
:10056000F7B5194B00269B79093B5A425341DBB240
:100570000193164B9847164B164F3C881D78164B27
:100580009847EDB2154B6A00D35AA4B2A34205D8DE
:10059000134B1878C0B20028EBD113E0AB012D0249
:1005A0005D19104B2D19EB5C01341E43A4B20E4BA8
:1005B0003C809847019B002B03D000233602019317
:1005C000D7E7301CFEBDC0463C01002011010000F1
:1005D000D3030020CE030020C9010000D403002073
:1005E000D2030020E8030020DD03000038B5114BE2
:1005F0009847114A114B1178C9B24C00E45AA02314
:100600005B009C420FD10E4B1B78002B0BD10D4D84
:100610002B78DBB2002B06D101242C704C426141B7
:10062000C9B211701C1C084B9847A0204000001B49
:1006300038BDC046110100004701002048010020DC
:10064000D803002069060020C901000008B5034B4B
:100650009847431E9841C0B208BDC046ED05000052
:1006600008B50020014B984708BDC0464D06000064
:10067000F8B5154B0C1C9D79093D6B425D41EDB2FF
:100680000020124B9847002805D1114B1878C0B2B2
:100690000028F5D117E00F4B98470F4B0F491B78F7
:1006A000DBB25E00725A571C775299011B02CB18BD
:1006B0000B499A180B4B54549847002D02D0241222
:1006C0000025DDE70120F8BD3C0100204D060000BB
:1006D000D203002011010000470100204801002042
:1006E0004C010020C901000008B5011C014B00208D
:1006F000984708BD7106000008B5034B58887F2352
:100700001840024B984708BD74090020C518000026
:1007100030B5144B1A7800239A4221D0124B1B6833
:100720001B681A79824201D8002319E00F4A13602E
:10073000DC789D7824022C431C199C420ED95D78EC
:10074000042D08D19D78854205D1DD788D4202D1F6
:100750001360012304E01D785B19EEE71360E3E703
:10076000181C30BD78060020700600207C06002092
:10077000094B1B681B68DA78997812020A439B18A8
:1007800002788018834205D94278042A02D0052ACB
:10079000F6D100E0002070477006002038B5104BFD
:1007A000051C9847002801D1002018E00D4B1C685B
:1007B000201C0D4B9847041E0AD06279237912023F
:1007C0001A438078E178094B98470028F0D1EBE78D
:1007D000074BAD001B685B68EB581B68984738BD3A
:1007E000110700007C060020710700002D15000095
:1007F00070060020F8B500210F4F051CB847041EF5
:1008000018D00E4BAA001B685B68D658F36898474F
:10081000011C281CB847041E0CD0094B1D68281C5D
:10082000084B9847051E03D08078074B9847F6E79A
:1008300073689847201CF8BD11070000700600205F
:100840007C06002071070000D914000008B5014B98
:10085000984708BD9119000038B50C4B00241A7850
:100860001D1CA24205D100232B70094B01221A80C6
:1008700038BD084B1B681B681B79A342F3D9201CA9
:10088000054B01349847E4B2F3E7C04678060020F0
:100890007606002070060020F507000008B5024B20
:1008A0009847024B984708BDF51900005908000009
:1008B00010B50B4B00241B78A3420FD0094B1B68CB
:1008C00019680A79A24209D95B68A200D3581B694A
:1008D000002B00D098470134E4B2EFE710BDC046CA
:1008E0007806002070060020F8B5A34C0023A381F1
:1008F00023616361237858B2002803DAE288002A72
:1009000000D1ADE16021194000D063E11F22002831
:1009100000DBA7E0E588002D00D15BE1134065D145
:100920006378062B09D0082B5BD0002B00D051E157
:10093000022D00D04EE1914890E063881D0A022DFF
:100940000CD006D8012D00D044E18D4B18680178F9
:100950003EE0032D1FD00F2D13D03BE1884ADBB2C0
:100960001068417C994200D834E15268DB00985805
:10097000C178837809021943824B9847A1684D706A
:1009800028E07F4B9868002800D123E1C178837864
:10099000090219431CE0DBB2012B04D0002B05D067
:1009A000022B06D016E11D21774A04E07748042186
:1009B0000EE0774A1021002376485D00D65C451989
:1009C00001336E80DDB28D42F6D3490002310170F1
:1009D0006C4B9847E388A2899A4200D8CAE0A38169
:1009E000C8E0012D00D0F5E06B4837E0012B25D1A0
:1009F00063780A2B00D0EDE0012D00D0EAE0664BD1
:100A00001B78002B00D1E5E0644B26791F683A681B
:100A10001379B34200D8DDE0301C614B9847051EC6
:100A200000D1D7E07B68B600F358DB6898475D4B90
:100A300001211870181C534B984799E0022B00D0E5
:100A4000C8E06378002B00D0C4E0022D00D0C1E0E4
:100A5000554B20799847554B1880181C291C494B39
:100A6000984787E013404DD160780138082800D9B5
:100A7000B0E002F09DFA0CAFAFAF05AFAFAF1A0018
:100A8000E388002B00D0A5E0494B236172E0E388A6
:100A9000002B00D09EE06388012B00D09AE0374BFA
:100AA00002211A888A431A8064E0E588002D00D06C
:100AB00090E0404B9847002800D18BE0304EA27860
:100AC0003068437C9A4200DD84E03B4B9847A37832
:100AD000314A1370002B4DD03849304A5B18716889
:100AE000DB00CB181360161C33681B681B79AB4204
:100AF00040D9281C0021324B984700286AD0013584
:100B0000EDB2F1E7012B15D163780B2B62D1E388AD
:100B1000002B5FD1204B1B78002B5BD02579294B14
:100B2000281C66889847002854D0F1B2281C244B12
:100B300098471CE0022B4DD16378012B02D0032B88
:100B400009D047E0E388002B44D16388002B41D1D2
:100B500020791D4B0AE0E388002B3BD16388002BF2
:100B600038D12079194B98472079194B9847051CA3
:100B7000002D2FD0012074E074090020760600209B
:100B8000A4000020E5180000390000209400002097
:100B90002800002058000020780600207006002061
:100BA000110700006C060020F915000074060020F3
:100BB000F9060000D518000059080000FFFFFF1FCC
:100BC0009D070000F50700000917000079140000D8
:100BD0000D16000022781F231340012B1ED1214B3C
:100BE0001B78002B1AD0204B25791E6832681379A8
:100BF000AB4213D9281C00211C4FB84700280DD048
:100C00007368AA00D658F3689847011C281CB84797
:100C1000002803D0B36898470028ABD122781F235F
:100C20001340022B1CD10F4B00241B78002B17D034
:100C30000D4B1B6818680279A24211D95B68A200AB
:100C4000D558E9688847094B011C201C98470028A3
:100C500006D0AB68984700288CD10134E4B2E7E7AE
:100C60000020F8BD78060020700600201107000063
:100C70000368987AC009704770B50C4B0822056864
:100C8000041CDA67201C0A4EB0470028FAD12B88D2
:100C9000022293432B8020756075201CB0470028EA
:100CA000FBD12B88012213432B8070BD04E100E0AF
:100CB000710C0000F8B50668071C0D1C141C381CCC
:100CC0000F4B98470028FAD13A79002A0AD01A2304
:100CD000012A12D11723012C0FD80634A400A551E4
:100CE000031C0AE01723022C07D806498D4204D8BA
:100CF0000C34ADB26400A553131C181CF8BDC046DB
:100D0000710C0000FFFF0000F7B52D4B0160151CB2
:100D10009A6920210A439A6101A90223041C0B70DD
:100D20000420284B98470420274B9847274B201C2A
:100D30009847AB7823712B796371254B1C602B8806
:100D400026683380AB78002B16D01720012B36D1C4
:100D500033889BB23380EB78002B03D0338880221A
:100D600013433380201C1B4B9847021EFAD1201CD2
:100D7000A968194B984719E033880422134333803C
:100D8000EB781720002B1AD1201C124FB847021EF7
:100D9000FAD1201CA968104FB847201C0D4B98476A
:100DA0000028FAD1201CE9680122B8472B790020DD
:100DB000834204D072888023DB0113437380FEBD1D
:100DC00000040040C52700003D270000790C00000A
:100DD00048070020710C0000B50C000070B50379C5
:100DE000041C05680E1C1520002B05D1201C034B8C
:100DF00098470028FAD1AE8270BDC046710C000041
:100E0000031C022A0CD00079002805D0012805D146
:100E10001720012A0FD803E0022A01D917200AE07F
:100E2000901C8000C1500120197D9040021C0A4393
:100E3000D2B21A750020704710B5036880220229CB
:100E400003D001228A4003242240DA710122437D2B
:100E50008A40111C1943C9B2417510BD38B5114BF8
:100E60001B68597D1C681A7D207A0A40E17901408F
:100E7000C80906D0510701D51B6998478023237202
:100E80000EE00125294203D02A4208D09B6805E0E4
:100E90000225294204D02A4201D0DB6898472572F6
:100EA00038BDC04648070020EFF3108072B6BFF38C
:100EB0005F8F034B00221A70434258417047C0466F
:100EC000180100200F2303405B00C00918180238E6
:100ED00014235843014B18187047C046840600205D
:100EE000F0B58E7985B072B20D1C544B301C002ABF
:100EF00046DA98470F2737400197028AC368029263
:100F00006D88041CED188368C560877C9D4221D0E4
:100F10005E1B4B4AB6B2964206D94A4B101C029948
:100F20009847474B5E1AB6B20023BA0706D5464B20
:100F3000301C029998478BB25A4253415A00A37C05
:100F400002218B4313436268A37452193F480199ED
:100F5000331C0AE0B807C00F0AD0022362689F431F
:100F60003A480199A77452190023394CA04763E00D
:100F700001239F432368A774002B5DD0291C59E0EF
:100F800098470F2333400293038A041C0193837C08
:100F90002F885A0710D5C268436801999B1803939C
:100FA0008068294B98470A1C02992A4B013989010C
:100FB000C9180398284B9847E368FA18A368E260B9
:100FC0009A4200D9E360AA88BA422AD1E5689D42D4
:100FD00027D05E1B1A4FB6B2BE4206D9381C194B39
:100FE000019998477F1ABBB205E0301C164B019956
:100FF0009847761AB3B2019A1448184E93420BD20E
:10100000A37C04221343029AA374013A114B920168
:10101000D2180299019B02E0626802995219B04706
:101020000AE0A37C01229343A3742368002B03D01E
:10103000E1680020321C984705B0F0BDC50E0000E5
:10104000FF1F00000D3100004D3000000C08002093
:101050005D1E00004C07002071310000A91E000039
:1010600010B5064B064C05221A70201C8021054B3A
:101070009847201C0021044B984710BDFF06002014
:101080000C080020E31D0000FD1D000037B51E4BBD
:10109000041C9847226801AD80239372281C1B4BC7
:1010A000984703236B70291C201C194B9847201C60
:1010B0001849194B9847194D201C00210222184B42
:1010C000A84700210A1C201C164BA847164B201CC1
:1010D00000210122A847154D201C00210222A8470B
:1010E00000210A1C201CA847201C00210122A8471F
:1010F00023680F4A19890A408021C9000A431A81CE
:101100000C4B00221A7037BD59080000011C00006A
:10111000111C00008C090020F11E0000991A00002B
:10112000851200003916000075110000E91A000050
:10113000FFF3FFFFFF06002010B5084B084C032209
:101140001A70201C0749084B9847084B00219A68E1
:10115000201C0B1C064CA04710BDC046FF060020FB
:101160000C0800208C090020F11E000074090020EA
:101170005D1E000008B589790C4B4AB2002A08DAD6
:101180001B78012B02D10A4B98470DE0042B0BD1A1
:1011900007E01A78022A02D104221A7004E0032A16
:1011A00002D10448044B984708BDC046FF06002002
:1011B000391100000C080020E31D0000F8B51D4D9A
:1011C0001D4E2B88B4891D4FE41AA4B2002C1BD1EC
:1011D0001B4A11885B189BB21380F2889A4203D095
:1011E000184B1B78002B07D0174B04221A70381CA1
:1011F0001649174B98471CE07369002B0BD0984792
:10120000002808D02C80B4893F2C04D90D4B002233
:101210001A70402402E00B4B01221A702B88B2682E
:10122000381CD2180021231C0A4EB0472B88E41822
:101230002C80F8BDFC060020740900200C0800205A
:101240008006002000070020FF0600208C090020F7
:10125000F11E00005D1E000008B5014B984708BD57
:10126000B1080000064B9A8C910605D4D968D022AB
:101270000A40D02AFAD102E0DA68D106FCD57047DC
:101280000008004070B5274E0C1C3378002B06D0A8
:10129000254B1B69002B00D098470023337023880F
:1012A000082B01D0214B2DE0214C1F4D23782B70B2
:1012B00063786B70E378A2781B02D3186B80637934
:1012C00022791B02D318AB80E379A2791B02D318D1
:1012D000EB80184B98470028E4D02B787F2B0DD952
:1012E000154B00211980154B221C198002233370E5
:1012F00013484023134CA047134B03E0EB88002B0B
:1013000002D1124B98470BE00B4B002119800B4B7D
:10131000221C19800123337009484023094CA0473F
:1013200070BDC046FF060020740900206110000057
:101330008C090020E908000080060020FC0600203F
:101340000C080020A91E0000BD110000391100008A
:10135000002805D0034B01221A70BFF35F8F62B6DD
:101360007047C04618010020F7B501AE114B041CB0
:101370001149301C04229847104B1D78A54217D004
:10138000002C08D00E4B375D98470E4BDA5D0132CA
:10139000DA550D4B9847002D08D0094B755D9847DD
:1013A000084B5A5D013A5A55074B9847034B1C703E
:1013B000F7BDC0467131000092310000FE060020EA
:1013C000A90E0000400700205113000038B5084C5A
:1013D000084D201C0621A847201C0421A8470221F3
:1013E000201C054B98470220044B984738BDC04647
:1013F0000C0800207D1A00005D1A0000691300002F
:1014000038B50B4B98470B4C0B4B201C02219847CF
:101410000A4D201C0421A847094A0A4B201C06211A
:1014200098470621201CA8470320074B984738BD42
:10143000651200000C0800207D1A00005D1A0000F3
:10144000CD1300003D1A00006913000010B5064CD2
:101450000421201C054B98470221201C044B98476F
:101460000120044B984710BD0C0800207D1A000095
:101470005D1A00006913000038B5041C211C0A48DD
:101480000A4B98470A4B201C9847827C031CD107C3
:1014900008D501201D6882439A74002D02D0D968B6
:1014A000221CA84738BDC0460C080020991D00002A
:1014B000C50E000000207047024B1B68188A80048C
:1014C000400D70470C080020024B1B68188A80B240
:1014D0007047C0460C080020F7B501AD041C0D4B49
:1014E000281C9847201C0C4B98470C4F0026291CA1
:1014F000381C0B4BEE702C7098470F21321C21408A
:10150000381C084B9847381C321C211C064B984746
:10151000F7BDC046011C0000791400000C08002033
:10152000111C0000C11A0000751B0000F7B501ACCA
:10153000061C294B201C0F1C151C984726700023E5
:10154000082D1DD90123102D1AD90223202D17D9BA
:101550000323402D14D90423802D11D980235B004F
:101560009D4201D805230BE080239B009D4201D8BA
:10157000062305E0194B9D4201D900202AE00723EC
:101580006370301C164B98470323391C05821940A1
:10159000012901D1022304E0022902D00329ECD160
:1015A0000423104DE370211C281C0F4B9847041E88
:1015B000E3D10F21221C0D4B3140281C0C4FB847A2
:1015C000221C311C0B4C281CA047281C311C01225A
:1015D000A0470120FEBDC046011C0000FF03000023
:1015E000C50E00000C080020111C0000E10E0000D8
:1015F000991A0000E91A000008B5011C014B0248C5
:10160000984708BDC51D00000C0800200F2310B529
:101610000340041C0020032B07D80448211C044B62
:101620009847201C034B9847012010BD0C08002050
:10163000E31D000079140000F8B5284E3378012B23
:101640003FD1274A274C0D881788A3897A199342DE
:1016500001DADD1BADB2A3682349D8192A1C234B3C
:10166000EF199847BBB21E4F3B80402D05D1204D4E
:10167000E1882A88D218914208DCA3816369002B93
:1016800002D0984700280AD01A4B1DE0A2899A423E
:1016900010D16069002802D08047002804D10523BA
:1016A0003370154B984718E03A882B88D3182B8055
:1016B00000233B8000210C4A4023104C1048A047D7
:1016C0000BE0022B02D10F4B984706E0054B1B693C
:1016D000002B00D0984700233370F8BDFF06002090
:1016E000FC060020740900208C09002071310000E4
:1016F00080060020391100000D160000A91E000010
:101700000C080020BD1100000F2370B50340061C1B
:101710000024032B0ED8084B9847084B051C311C9E
:1017200007489847AB7C0124DA0703D5A343AB7481
:101730002B689847201C70BDC50E0000FD1D0000E1
:101740000C080020F0B51E1C0F2385B00340071CB9
:10175000029103920193032B01D9002596E04D4B92
:101760009847051EF9D14C4B381C98474B4B041C2D
:101770009847A27CD10702D5494B984786E00123C0
:101780001A43A274002804D0464A1370BFF35F8F37
:1017900062B60023E3600A9B039A0298A17C23604F
:1017A00001236260184002229840914301430420C3
:1017B0008143A17479B2A660002930DA002E1AD0D4
:1017C000394DB6B2AE4205D9218A281C374B98470D
:1017D0006E1AB6B202990023994206D0344B218A80
:1017E000301C98478BB25A4253415A00A37C0221C5
:1017F0008B43134304E00299002909D0A37C93434F
:10180000A3740199039A331C2A4C2B48A0473AE051
:10181000A27C9A43A2740A9A002A08D10CE0002EF6
:101820000CD1A27C0A999A43A274002904D000200A
:10183000011C3A1C0A9B9847012527E01A4FB6B2B3
:10184000258ABE4206D9381C184B291C98477F1A96
:10185000BBB205E0301C164B291C9847761AB3B270
:101860001548164EAB420BD2A37C04221343019AB7
:10187000A374013A124B9201D21801992B1C01E07A
:101880000199039AB04745424541EDB2281C05B085
:10189000F0BDC046F9150000C50E0000A90E0000FD
:1018A0005113000018010020FF1F00000D3100003F
:1018B0004D3000005D1E00000C080020A91E000035
:1018C0004C070020024B80221B681043987270471F
:1018D0000C080020024B1B68987A7F231840704741
:1018E0000C080020014B9860998170477409002012
:1018F00008B5044B01201B681A8902431A81024B68
:10190000984708BD0C08002069130000F8B50320B3
:10191000164B9847164C01272368164E1A89201C2F
:10192000BA431A810421144AB047201C0021134AEB
:10193000B047391C201C124AB047124A201C022111
:10194000B047114D201C0421A847201C0021A847A6
:10195000391C201CA847201C0221A8470B4A201C28
:101960000621B047201C0621A847F8BD69130000D6
:101970000C0800203D1A00004D1400005912000010
:101980008D100000011400005D1A0000CD1300004E
:1019900073B50E4B984701AC061C0D4B201C9847A5
:1019A0000C4D00230C49221CA370281C0B4B98479C
:1019B000281C0B4B98470B4B984701200A4B984724
:1019C0000A4B9847301C0A4B984773BDA90E00007C
:1019D000452100000C080020005000415521000066
:1019E000211F000065120000691300000D1900009E
:1019F0005113000010B5074B98470020064B98473D
:101A0000064B9847064B041C9847201C054B9847EB
:101A100010BDC046F118000069130000A90E0000B7
:101A2000291A000051130000034B1A78002A01D034
:101A300000221A707047C046010700200B1C2E338D
:101A40009B001A50044AAA235B004900895AC25AD3
:101A50000A43C2520020704796310000064B4900ED
:101A60000268CB5A9383AB225200815A19438152A8
:101A7000026800201383704796310000054BAB22AB
:101A800052004900CB5A815A994381520268002082
:101A9000938270479631000010B58C00A41834343E
:101AA000A4000419411863605931044BFF310878D0
:101AB0009B5C03430B70002010BDC046A4310000A6
:101AC00010B58C00A418031C34345B18A40004194E
:101AD0000449002059336060FF33895C1A788A43D7
:101AE0001A7010BDA431000070B50F230B40C4184C
:101AF00061341F4DFF342678AD5C35432570002AD4
:101B00000ED10268002B02D1FF3203230FE05B01EC
:101B1000D31849B2FF330222002926DB012224E038
:101B2000012A0FD10268002B03D1FF320C239372DC
:101B30001CE05B01D31849B2FF330822002914DBF3
:101B4000042212E0022A05D102685B01D318FF3398
:101B500010220AE0032A09D102685B01D31849B2B6
:101B6000FF334022002900DB20229A72002070BD42
:101B7000A431000070B50F230B40C4181F4D613411
:101B8000FF34AE5C2578B5432570002A0ED102687B
:101B9000002B02D1FF3203230FE05B01D31849B2BF
:101BA000FF330222002926DB012224E0012A0FD183
:101BB0000268002B03D1FF320C2353721CE05B013F
:101BC000D31849B2FF330822002914DB042212E0A3
:101BD000022A05D102685B01D318FF3310220AE004
:101BE000032A09D102685B01D31849B2FF334022AE
:101BF000002900DB20225A72002070BDA4310000B1
:101C000000230370437083700123C370704700008A
:101C1000F0B5021C0D78C8780F232B40ED0904287D
:101C200000D998E0146801F0C3F90308495D7A000F
:101C300008335B010020E054A9E05D016419FF3422
:101C400066781C20770700D0A1E0677870263742BD
:101C500000D09CE011206070146808335B01E0182C
:101C6000402444711268D31880221A718A78484B34
:101C7000002A08D05A195468802000060443546092
:101C80005469204307E05A195068400040085060EA
:101C900050694000400850615D194C78686807221F
:101CA0003C4B1440184024072043686049780A40A0
:101CB000696912070B4013436B6162E058012418F5
:101CC000FF34002D07D0677870261C2037425ED184
:101CD0006078202612E066781C20770757D160785C
:101CE00002262FE058012418FF34002D10D0677809
:101CF00070261C2037424AD160783026304360700D
:101D000010681A1C0832520182188020107122E0DB
:101D100066781C2077073AD16078032612E05801D4
:101D20002418FF34002D07D0677870261C20374216
:101D30002DD160784026E1E766781C20770726D110
:101D4000607804263043607010681A1C0832520113
:101D50008218402050715B005D190D4B48782D01B1
:101D60005B19072210405C680A4A000722400243C0
:101D70005A608878002806D05968802212060A43E3
:101D80005A60002003E05A68520052085A60F0BDC1
:101D9000CC090020FFFFFF8F0F230B4002680833A0
:101DA0005B0149B2D218002905DA8021117102685D
:101DB000D318022204E0402151710268D318012295
:101DC000DA7170470F220A400368083252019B18EB
:101DD00049B29879002901DA800600E0C006C00FF8
:101DE00070470F220A4003680832520149B29B181B
:101DF0002022002900DB10225A71704730B50F22D3
:101E00000A404CB201685301C918FF31CD79002C4A
:101E100011DA2024254220D04C710168CB18FF3301
:101E20001C7A40210C4218D0197203680832520102
:101E30009A18022310E0102425420ED04C7101683C
:101E4000CB18FF331C7A20210C4206D0197203688C
:101E5000083252019A180123137130BD70B50D1C60
:101E6000046808356D012E5D1C247606760F14D0AB
:101E70000B4C490161180A610C1C0A4A49690A4065
:101E800062619A046369920C9B0B9B031343636129
:101E9000036800245D1980236B71201C70BDC0464F
:101EA000CC090020FF3F00F0F0B50D1C0468083598
:101EB0006D012E5D1C24770713D00B4C49010A518C
:101EC00061184C689A04094B1209234013434B6074
:101ED0004B6800249B0B9B034B6003685D194023F8
:101EE0002B71201CF0BDC046CC090020FF3F00F044
:101EF000094B0A4A196059680A40802189020A433D
:101F00005A605A68920B92035A6003684022FF336A
:101F100000205A717047C046CC090020FF3F00F0F6
:101F2000036802211A780A431A7002689378022B18
:101F3000FCD07047F0B57E4C85B0206802681378FD
:101F4000DB0900D0F2E0118C8FB2002F4CD1AB2313
:101F50005B00C65A958BAA235B00ADB2C35A2E40D4
:101F60001E40744B7A00D35A1D4202D02268126878
:101F700093831E420FD07049062F06D16F4B1A89EA
:101F8000802312095B0013400B603B1C20682E333A
:101F90009B001B5898470137072FE2D1C6E01E1C53
:101FA0000836B025009674016D00C61875195936AB
:101FB0001419FF36B4460294E4792E7803956546E9
:101FC0002D78E4B22E40351C60262540344212D1D3
:101FD000102634422AD10C2634423AD1A60776D1B3
:101FE0000133082B00D1A1E03C1C1C410125D9B2D2
:101FF0002C42F5D0D3E75C011219FF32167A402447
:10200000264204D0147280225242114304E0167A10
:102010002024264202D01472494A9171602215424E
:1020200000D183E01B01C318DC337CE0029F0399DD
:10203000FE710A78324279D040495A018A185268B2
:102040001B0192043E49C318920CD8330A805B6886
:102050006BE05C011219FF32177A082637421DD057
:102060001672364A1419A67E02221834164202D07D
:10207000A6789643A670802252421143304A91714D
:10208000009902684F01D719FA7994074ED40C22AF
:1020900015424BD01B01C318D43344E0167A0427F1
:1020A0003E42F4D01772254A1219967A0224083259
:1020B000264202D09678A6439670214A91710099E3
:1020C00002684F01D719FA79D407E0D52EE05C01F8
:1020D0001219FF32177ABC46664602273E420CD0E0
:1020E000802617727642164A3143917113490C19B2
:1020F00061698904890C518010E0177A0126374202
:102100000CD016720E4A91710C490C196168890441
:10211000890C118061680901890C9180AF0705D095
:102120000D331B01C3185B680549984705B0F0BD26
:10213000140700209631000004070020CC0900207D
:102140000C07002000220123027043708270C370CC
:1021500070470000F7B5171C634A00231360634AF9
:10216000051C1060624A29600C1CD169202001AE58
:1021700001430120D16106227370B070F370182002
:102180005C4B311C3270984706205A4A3070311C23
:1021900019209047BB786846037069460620564B65
:1021A0009847564B06209847237801221343237003
:1021B000A378D807FCD452490B685A0B1F231A4046
:1021C0009A4200D105221A409001268D4D4A324094
:1021D000024322850868820C13401F2B00D11D2367
:1021E000208D1F2213409043034323850B68072251
:1021F000DB0D1340934200D103231340218D1A03BA
:10220000414B42480B401343238521783A787F2382
:10221000D2010B40134323707978012319402378AE
:102220000422890093430B4323706062FB78012BE7
:1022300004D12B680C211A898A4306E0002B05D1B2
:102240002B680C241989A1430A431A818022304B40
:102250000021520098470023E918002204334A6005
:10226000202BF9D1A918002310324B628B62CB626C
:102270000B63802AF6D12A1CA43213705370E9181C
:10228000081C0022A630AE31013302700A70082B00
:10229000F5D1131CE918B831002204330A601C2B55
:1022A000F8D1A918081C0023D430E03110320360A3
:1022B000436083600B60802AF3D1AA225200AB52A4
:1022C000AB225200AB52AC20EA1840001118613228
:1022D0000020FF32013308701070082BF3D10D4B32
:1022E00080221A60FEBDC0460807002014070020A7
:1022F0000004004061280000C52700003D270000C1
:10230000246080003FF8FFFFFF8FFFFFCC09002013
:102310008331000000E100E0094B196800290BD16E
:10232000EFF31080074A002805D172B6BFF35F8F24
:1023300005490870012111701A6801321A6070474E
:10234000180700201C07002018010020084B1A68FD
:10235000013A1A601B68002B09D1064B1B78002B31
:1023600005D0054B01221A70BFF35F8F62B670472C
:10237000180700201C07002018010020F7B501AC49
:1023800001250027084E211C1B206570A7702570B1
:10239000B047064B802212059A610F20211C27703E
:1023A0006570B047F7BDC046B1230000004400414E
:1023B00007B5802201AB1A700A785A704A789A7071
:1023C0008A78191CDA70014B984707BD6128000014
:1023D00010B50C4B02211A680A431A601968802252
:1023E0009143094A89B29184101CC168064ACC06FF
:1023F000FBD599680020D162596891621B689BB235
:10240000938410BD200700200008004070B50D4BDC
:1024100045781E6A81780478012240208643154061
:10242000AD01301C0A402843D10180229043021C98
:102430000A43054803212140090202400A431A6267
:1024400070BDC04600080040FFFCFFFF30B5027AB7
:10245000438992069B059B0D120C1A43124B5A603E
:1024600042888188C4791143827922430A434178A2
:10247000C9010A431A600278042A0BD1047BC1897E
:10248000058A0A48A40609042C43014021439960A7
:10249000196806E0202A06D1028A9A601968842207
:1024A000D2000A431A6030BD200700200000FF035D
:1024B00008B5082828D800F07BFD122727100B1834
:1024C000051E2100114B02211A6A0A431A6204E018
:1024D0000E4B02219A690A439A61002015E00B4BCA
:1024E00002211A8A0A431A82F7E7084B02219A8AC4
:1024F0000A439A82F1E7064B984706E0054B022112
:102500001A780A431A70E8E7172008BD000800404F
:10251000D123000044080040F0B5C223344EDB0054
:10252000B360344B1E215A688BB08A4304210A439E
:102530005A6005A800234380837143700723037307
:102540003F232022C3812C4B02701A68920E3F2A2F
:1025500000D11F22294B2A491B689B059B0D8B42EA
:1025600000D1284B43810823C37180235B00838003
:10257000254B02720382254B984701A801230025B1
:102580008370234B457005709847224B062098476F
:10259000214B984702AC0323211C6570257265729C
:1025A0002370022020231D4D6360A84702201C4F8A
:1025B000B8471C4B98472A1CF1680D4BC806FBD541
:1025C000998C802001439984174B002507211D72A7
:1025D000281C5D729D7201232170211C636023728F
:1025E000657065729047281CB8470BB0F0BDC046B7
:1025F0000008004000400041246080002860800006
:10260000FF030000FF01000080BBFFFF4D2400001E
:102610000D240000B12400003926000059260000D6
:10262000FD260000D123000000040040014B587833
:10263000C0097047000C0040054B08219A690A4305
:102640009A61044B01221A701A78D107FCD47047A2
:1026500000040040000C0040F8B50C784B782402D0
:10266000051C061C0443002B02D08023DB021C4304
:102670004B7A002B02D080231B031C434B68012B99
:1026800013D95E1E1E400222002E09D19A4202D2A8
:1026900001365200FAE7360280232E435B0303E043
:1026A0001E0280232E439B021C430B7A002B02D078
:1026B00080239B031C430C4FB8470028FBD10B4BD6
:1026C00098470B4B1D70B8470028FCD1094DAE60F0
:1026D000B8470028FCD16A6880235B0213401C4382
:1026E0006C60054B9847F8BD2D26000019230000AB
:1026F000080C0040000C00404D23000038B5051CBC
:10270000094CA0470028FBD1084B9847084B1D7087
:10271000A0470028FCD1074B8022596852020A4387
:102720005A60054B984738BD2D260000192300003C
:10273000040C0040000C00404D23000010B5074B76
:10274000041C9847064B80221C70064BD201598806
:102750000A435A80044B984710BDC0461923000015
:10276000020C0040000C00404D23000038B50F4B18
:10277000041C98470E4B0F4A1C700F4B5988588801
:102780000905104058805C880C48090F204058808B
:10279000101C5C88084A6504FBD453880902034076
:1027A0000B435380064B984738BDC04619230000A1
:1027B000020C0040FFF0FFFF000C0040FFBFFFFFD6
:1027C0004D23000010B50C78034B240204439847B6
:1027D000024BA4B25C8010BD6D270000000C0040CD
:1027E00030B5D47800239C421AD11478802C03D0C1
:1027F000802324065B02234354780225AC4309D18D
:102800009478002C02D18024A40201E0C024E402C8
:10281000234341605478013C012C01D80F4C2340E4
:10282000A0248DB2E4052C431C438462D0240D0CFB
:1028300024062C431C438462D478002C0CD15C0306
:1028400005D59378012B01D1816100E04161537876
:10285000013B012B00D8816030BDC046FFFFFBFF6C
:1028600008B5031C0A1C4009D90903D10549C00158
:10287000401800E000201F210B4001219940024B2D
:10288000984708BD00440041E12700007047000060
:1028900008B5044B9847044B9847044B9847044BA2
:1028A000984708BD192500007D2300008D280000F1
:1028B0008D280000FEE700001148124910B588423B
:1028C00001D0002301E0104B07E0104CCA18A242CF
:1028D000F9D2C45804331460F7E70D4A191D043BBC
:1028E000934203D200221A600B1CF6E7094A0A4BF6
:1028F0007F218A439A60094B9847094B9847FEE726
:10290000C831000000000020240100202001002028
:10291000040C00200000000000ED00E02531000064
:10292000012F000008B51D4B1A6802321A601968A1
:10293000FA225201914209D9194A1A49082013680A
:10294000C867997A49B200290BDAFAE71868322188
:10295000154B9847002920D18022144B1205DA61CB
:102960001BE01988022081431980136880221A72A3
:102970000F4AC02308215B00D1500E4B984772B616
:10298000BFF35F8F0C4B00221A70BFF34F8F0B4ABF
:102990000B4BDA60BFF34F8FFEE708BD3C0700200A
:1029A000CC0A002004E100E04D300000004400416A
:1029B00000E100E09D080000180100200400FA0575
:1029C00000ED00E008B5044B98470028FBD000203C
:1029D000024B9847C0B208BD5105000061050000D8
:1029E00010B5041C034B98470028FBD0201C024B59
:1029F000984710BD61060000E90600000B4B0C4A29
:102A00001968914211D91A68D2B2002A09D01A68FD
:102A1000012152085200494211801A6802321A609C
:102A2000F1E7044B1B7DDA07FBD570471C01002042
:102A3000FF3F00000040004110B50B1C00225C1A53
:102A4000A4B2844203D21C7801336240F7E7101C21
:102A500010BD0000F0B5944BC9B0587969460870B4
:102A600001381C2800D9F8E000F0A2FA0F5A32F71A
:102A7000F75DF7F7F7F7F7F7F7F7F7AD53869EC26D
:102A8000F7F7F7F7F7F725F76B0000234B700823EC
:102A90008B704123CB7056230B7152234B7149230A
:102AA0008B715323CB7150230B725F234B723223F4
:102AB0008B720B24D2E05A7A00234B7002218A1ABF
:102AC0007A49D2006E461141B170F3700424C5E01A
:102AD0009B7900224A70902B10D006D8802B0BD007
:102AE000812B11D102238B7011E0912B09D0922BF5
:102AF0000AD105238B700AE0012306E003248C70C1
:102B0000ACE004238B7002E0002369468B70032441
:102B1000A4E000234B70664A664B1A6002249DE0D5
:102B200000234B70FAE79979DA79090612040A430F
:102B3000597A1B7A0A431B021A435F4B52001A60F0
:102B40002EE0597A002230290DD16E46DB7AF170E1
:102B50000221CB1A5549DB0019417270B2703271F3
:102B60007171B27106E0684642708270C170027184
:102B700042718271072471E08022D2014F4B197D8E
:102B8000188B2021FF310143198391084900D96135
:102B90004B4901321980FF328023DB029A42EDD18A
:102BA000002369464B70B9E79879DA794249000207
:102BB00010180C68434A80B2944208D80B68C018B9
:102BC000414B0860984700236A465370A6E70F33CD
:102BD00000228242F2D25D780C681E7814192D0210
:102BE000640875196400ADB2258002320233F0E743
:102BF0009879DB790002304A18186E46002381B2BA
:102C00007370304D1668CC1CA4B2AE421DD98B42F5
:102C100012D21568981C5D196D086D002D886E46DE
:102C20003554156800AE5B195B085B001D883318CE
:102C30002D0A5D70031CEAE7136800A8C918031980
:102C40001160013B00221A7008E08342F4D000AE0C
:102C5000F518FF26AE700133F7E700241B4D1B204B
:102C6000A8471B4B260A1F78381CA847F0B2A84774
:102C70001B235F4067407E40E0B2F7B2A8470E20BA
:102C80004740A8470026B3B2A34204D26946885DF4
:102C9000A8470136F7E769460E4B201C9847474086
:102CA000F8B2A84749B0F0BDE40A002001981E0020
:102CB0004C1D00003C0700201C010020004000418A
:102CC00002A5FFFFFF3F0000FD290000E1290000F1
:102CD0003A070020392A0000F8B500273D1C3C1CAB
:102CE0001F4B98471F49061C48550135062CF7D83D
:102CF000201C00F05DF904080C11171C23001B2E8A
:102D000028D00025ECE7184B02241E70E8E7174B8B
:102D100036021E800324E3E7144B04241A8816436A
:102D20001E80DDE70E2E17D100270524D8E70F4BB4
:102D300001371B889F42D3D10624D1E7013DA8B2B9
:102D40000B4B98470025B04207D10A4B1D600A4B38
:102D50009847F8BD0124C3E700252C1CC0E7C046F6
:102D6000C5290000E40A00203A07002038070020A7
:102D7000392A00003C070020552A0000094B042195
:102D8000DA690A43DA61084B2022198BFF320A43C1
:102D90001A831A7DD10703D559681E220A405A604A
:102DA0007047C04600040040004000417FB500234A
:102DB0006A46164CD37013809370029303930123D9
:102DC00013711349134B201C134E98470822236894
:102DD000326021688A7A52B2002AFBDB1A88022507
:102DE0002A431A80201C2A1C0C490D4B9847291C89
:102DF000201C0C4B9847201C01210B4B9847C023EB
:102E0000AB40F2581202120AF2507FBDCC0A0020E9
:102E100000140040090D000000E100E02529000039
:102E2000010E0000390E0000DD0D0000F0B5294B49
:102E300085B09847284B1A7DD007FBD5274F6946A8
:102E40003A88274E0A81274A11886A46518131887B
:102E500003AA1180244A11886A46D1810299072267
:102E60000A40012A31D01A8BD00530D4596880220B
:102E7000D2020A4301915A601A8B2025FF352A435A
:102E80001A831A4C1A4ADC611A80197D124AC80743
:102E9000FBD5108B284310831648D4611080197D10
:102EA00001200D4A0142FAD0138B1D431583D461D2
:102EB000029B0724634018430290029B3B600398E7
:102EC0000D4B30601380019951600C4B984705B051
:102ED000F0BDC046192300000040004100408000C2
:102EE0000440800002408000064080000020400036
:102EF00005A5FFFF44A5FFFF06A5FFFF4D2300002A
:102F000008B51D4B1A7852B2002A03DB1A78022149
:102F10008A431A70194B1A78D10611D41B789A0675
:102F20000ED48023DB01188815491A1C884207D06B
:102F30001B6883F30888134B9A60134B1B689847F0
:102F4000124B01221A70BFF35F8F62B6104B984785
:102F5000104B9847104B9847104B9847104AC12385
:102F60009B00D05880210002000AC9050143D150BE
:102F70000C4B98470C4BFCE7001000403804004015
:102F8000FFFF000000ED00E00440000018010020F9
:102F900091280000AD2D00007D2D00004D0800009F
:102FA00000E100E02D2E0000D92C00007047000049
:102FB00002B4714649084900095C49008E4402BCCC
:102FC0007047C046002934D00123002210B4884243
:102FD0002CD301242407A14204D2814202D2090148
:102FE0001B01F8E7E400A14204D2814202D2490069
:102FF0005B00F8E7884201D3401A1A434C08A0420C
:1030000002D3001B5C0822438C08A04202D3001BA1
:103010009C082243CC08A04202D3001BDC082243B8
:10302000002803D01B0901D00909E3E7101C10BCDC
:103030007047002801D00020C04307B4024802A115
:103040004018029003BDC046D90000000029F0D00E
:1030500003B5FFF7B9FF0EBC4243891A1847C046B3
:10306000002941D010B4041C4C40A4460123002286
:10307000002900D54942002800D5404288422CD37F
:1030800001242407A14204D2814202D209011B017A
:10309000F8E7E400A14204D2814202D249005B0079
:1030A000F8E7884201D3401A1A434C08A04202D3E1
:1030B000001B5C0822438C08A04202D3001B9C0822
:1030C0002243CC08A04202D3001BDC082243002884
:1030D00003D01B0901D00909E3E7101C6446002C4A
:1030E00000D5404210BC7047002806D003DB00200A
:1030F000C043400801E08020000607B4024802A156
:103100004018029003BDC046190000000029EBD012
:1031100003B5FFF7A7FF0EBC4243891A1847C04604
:103120007047C04670B50E4B0E4D0024ED1AAD1021
:103130001E1CAC4204D0A300F35898470134F8E7B2
:1031400000F032F8084B094D0024ED1AAD101E1C9A
:10315000AC4204D0A300F35898470134F8E770BD9F
:10316000B4310000B4310000B4310000B8310000C7
:1031700010B50023934203D0CC5CC4540133F9E76B
:1031800010BD031C8218934202D019700133FAE774
:103190007047000302010400080070008000010075
:1031A00000010002030C1060F8B5C046F8BC08BC72
:1031B0009E467047D9000000F8B5C046F8BC08BC70
:0831C0009E467047B1000000BB
:1031C8006D0400003D010000590100005D01000090
:1031D80051030000610100002D010000E101000021
:1031E8005D0100000000000041726475696E6F2087
:1031F8005A65726F2050524F0041726475696E6F44
:103208002073726C20287777772E41726475696E07
:103218006F2E6F7267290000000300000000000095
:103228000000000000000000000000000000000096
:103238000000000000000000000000000000000086
:103248000000000000000000000000000000000076
:103258000000000004030904050F0C000107100218
:103268001E090000C0000020B800002098000020BF
:103278001400002000000020D4000020B00000202E
:103288001201010202000040032A4D000001010260
:103298000001000009024300020100C0FA0904000D
:1032A80000010202010005240010010424020205A5
:1032B80024060001052401030107058303400010CB
:1032C80009040100020A000000070581024000000D
:1032D8000705020240000000010000000040000055
:04000003000028B918
:104000000080002035430000FB410000FB41000020
:1040100000000000000000000000000000000000A0
:10402000000000000000000000000000FB41000054
:104030000000000000000000FB410000E94100001A
:10404000FB410000FB410000FB410000FB41000080
:10405000FB410000FB410000FB410000E14B000080
:10406000FB410000D5490000FB410000FB4100007E
:10407000FB410000FB410000E5490000FB4100005E
:10408000FB410000FB410000FB410000FB41000040
:10409000FB410000FB410000FB410000FB41000030
:1040A000FB410000FB410000FB410000FB41000020
:1040B00010B5064C2378002B07D1054B002B02D0FE
:1040C000044800E000BF0123237010BD2C00002035
:1040D00000000000086A000008B5084B002B03D060
:1040E0000748084900E000BF07480368002B03D0D9
:1040F000064B002B00D0984708BDC04600000000CA
:10410000086A0000300000202800002000000000A5
:1041100008B50D20012100F09FF908BD10B5FA2463
:104120000121A4000D2000F043FA201C00F04CF8FF
:1041300000210D2000F03CFA201C00F045F810BDD5
:1041400038B5134D1349281C00F074FA124913486E
:1041500000F070FA1249134800F06CFA1249134843
:1041600000F068FA1249134800F064FA124C13493F
:10417000201C00F05FFA291C00220123104800F0E7
:104180008FFB211C242223230E4800F089FB38BD1D
:104190000C01002000080042000C00421001002029
:1041A0000010004214010020001400420801002009
:1041B00000180042180100201C010020001C0042D1
:1041C00048000020A800002070B5041E08D0054B50
:1041D0001D681E1C00F010F833685B1BA342F9D960
:1041E00070BDC04620010020024B1A6801321A60DF
:1041F0007047C046200100207047FEE730B5404BB5
:104200001E225968082091430222114359603D49FA
:104210008B6903438B613C483C4B9882988A0243EC
:104220009A82DA689007FCD5394A0120107010781C
:10423000C40704D53648407840B20028F7DB012097
:104240009060507840B20028FBDB324C304844602C
:10425000507840B20028FBDB82242D48E4014480E2
:10426000507840B20028FBDB988C8024A0439884CF
:10427000D868C506FCD5284C2448C462DC682348AD
:10428000E506FBD5848C254D2C438484DC681F48CF
:10429000E506FBD5848C02252C438484D86804066B
:1042A000FCD51A48C0684506F8D5D868C406FCD5C0
:1042B00000209060507840B20028FBDB184C144876
:1042C00044605478124864B2002CFADB1D6A154C25
:1042D0002C401C621C6A8025AC431C620323836053
:1042E000114B436053785BB2002BFBDB00230B7256
:1042F0000E4A4B728B72CB720D4B1A6030BDC046AA
:1043000000400041000400400C060000000800408E
:10431000000C004001050100B805FF7D040A000003
:1043200000070300FFFCFFFF03060100006CDC0236
:104330000000002038B51049104CA14206D101F010
:10434000A5FFFFF75BFF00F059F90BE00C4D8D4224
:10435000F5D00023CA18E818A24204D2006804333A
:104360001060F7E7FEE79042E9D0064B064A934219
:10437000E5D2002204C3F9E7000000202C00002051
:10438000286A00002C000020AC050020264BFA21F2
:10439000186810B5890001F0CBF9244B0138984218
:1043A0001DD8234B234A5860106AC0210002000A1E
:1043B000090601431162002407229C601A601E4B0B
:1043C000FC211A6A0A431A62196AFF2212020A437E
:1043D0001A62196AA022D2020A431A6200E0FEE7BA
:1043E000201C0021013400F037F8132CF8D1134BB6
:1043F000134AA0215380134BC900998012491961B7
:104400001121997002215970187801431970597E51
:10441000C9090129FBD00D4B53800D4B41225A7025
:104420000C4A1A8110BDC04600000020FFFFFF00AB
:1044300010E000E000ED00E0000400401E4000003D
:10444000000C0040004000420018000F2140000016
:1044500000480042FF03000070B518244443204B7D
:1044600008261A1996571D1C013638D0012919D073
:1044700000290AD0022932D1E3561A495268DB01D9
:104480005B1899184031062007E0E3561549526839
:10449000DB015B189918403102200870012191401E
:1044A00059601CE0182811D0182358432B560D4989
:1044B00028184268DB015B189918403108780224FB
:1044C000A043087001219140996008E0064B022149
:1044D0001A780A431A70DA79D209FCD1E4E770BD80
:1044E0001463000000440041004800421822424387
:1044F000F8B52D4D0824AA181457031C621C50D07F
:10450000481C00240C284CD801F008F9071E1E1E78
:104510001E1E1E1E1E0A0A0A0A000124644240E0F2
:10452000092902D1181C002103E00A2904D1181C12
:104530000221FFF791FF23E000240B2931D1181C41
:104540000121FFF789FF2CE018225343EA18526833
:10455000EB560120141C04405508DB01002C11D03F
:10456000124C1B195D1930352E780C010F2131408A
:1045700021439A18C9B22970403213781843107039
:1045800000240EE0094E0F279B195D1930352E7857
:104590009A18BE433143C9B2297040321378184388
:1045A0001070201CF8BDC046146300000044004198
:1045B000182358430E4A30B5131808241C570134E9
:1045C00015D080560B4C5B68C0010219D4184034DA
:1045D00004252570002904D0012908D19940916152
:1045E00005E001229A40131C034A8018436030BD45
:1045F00014630000004400411044004110B5FFF76F
:10460000C5FE0120FFF7E0FD084C201C00F0B2FAC7
:10461000201C00F09DFAFFF77BFDFFF77FFD044BA8
:10462000002BFAD000E000BFF7E7C0462C010020C5
:104630000000000001607047F7B508AC26780468F8
:104640009D1E27686C1EA541ECB2920705683A438F
:1046500027063A432A600268072529405068B501B9
:10466000002C00D05C03294301430C435460F7BD88
:1046700030B50368C0251C68AD0312052A402243EB
:10468000C024A402090421401143196003685A6838
:1046900014435C6030BD036801211A680A431A6044
:1046A0000268116801231942FBD1D1691942F8D17E
:1046B0007047036802211A680A431A600268D369C6
:1046C0009907FCD470470268137ED907FCD5704760
:1046D000036800225A8370470368187E4007C00FA2
:1046E00070470368588B4007C00F70470368588BAA
:1046F0008007C00F70470368588B0123184070472C
:104700000368188DC0B2704738B5041C0D1CFFF744
:10471000DAFF236801201D8538BD000002682349A7
:1047200030B58A4210D022498A4210D021498A42AB
:1047300010D021498A4210D020498A4210D0204905
:104740008A4210D0002210E0092314220DE00A232F
:1047500015220AE00B23162207E00C23172204E09F
:104760000D23182201E00E23192258B2012484409F
:104770001449800880000C6040180325C02189007E
:104780002B40AB404458FF259D40AC43C0259D4085
:104790002B1C234343508023DB011A430A4B5A80CE
:1047A0005A7852B2002AFBDB30BDC04600080042F6
:1047B000000C0042001000420014004200180042A9
:1047C000001C004200E100E0000C0040F8B5041CB1
:1047D000151C0F1C1E1CFFF75EFF201CFFF79EFF21
:1047E000B9001C220A4069072368090C0A431A60B1
:1047F000226884239375012F26D11020002D03D029
:104800000320022D00D1082001F0DAFB051C301C2A
:1048100001F0D6FB011C281C01F018F90B4B051CFC
:10482000186801F0CDFB011C281C00F0E9FF011CF9
:10483000FE20800501F034FA054901F007F900F087
:10484000C7FF246880B2A081F8BDC04600000020E8
:1048500000FF7F470120704710B5041C0069FFF777
:104860001AFF201C143000F06CFD10BD08B5006963
:10487000FFF729FF08BD08B5143000F074FD08BD2E
:1048800008B5143000F075FD08BD08B5143000F00F
:104890005CFD08BD08B50069FFF736FF012008BDC3
:1048A000F8B51D1C00234360FA239B008360084B6E
:1048B000041C0833036014300F1C161C00F02BFD81
:1048C000231C5C332761201C1E705D70F8BDC04640
:1048D0009867000010B5041C0069FFF7FDFE002872
:1048E00007D02069FFF70CFF011C201C143000F0DA
:1048F0001DFD2069FFF7F5FE002809D12069FFF7AB
:10490000F5FE002804D12069FFF7F5FE002802D04B
:104910002069FFF7DDFE10BD0F23081C98433038D7
:10492000434258417047002070470F231940012926
:1049300005D002394B424B410220C01A00E0002052
:1049400070470000F0B5031C85B003915C33041C74
:10495000182718783B1C43431A4E0821F318595660
:10496000151CFFF7C3FD231C5D331878082147434E
:10497000F6197156FFF7BAFD039B00222069012149
:10498000FFF724FF291C201CFFF7CDFF291C071C63
:10499000201CFFF7CAFF291C061C201CFFF7BCFFC8
:1049A000331C0090391C20690122FFF745FE206965
:1049B00001210322FFF75CFE2069FFF77AFE05B0B4
:1049C000F0BDC0461463000008B51322FFF7BAFF1C
:1049D00008BD000008B50248FFF77CFF08BDC046CF
:1049E0004800002008B50248FFF774FF08BDC04624
:1049F000A800002008B500F03FFC08BDF8B5124B38
:104A0000061C1B680D1C171C002B02D101246042E0
:104A100019E000F031FC041EBC4200D93C1C2F19E7
:104A2000BD4205D0301C00F0E1FB28700135F7E7EE
:104A3000002C07D0301C00F01FFC002802D1301CD5
:104A400000F024FC201CF8BD3801002013B56C4692
:104A50000734211C0122FFF7D1FF012801D1207862
:104A600001E00120404216BD38B5104B051C1B6803
:104A7000141C002B15D000F099FB08350C4A6B0173
:104A80009B18DA7902210A43DA715979802252425D
:104A90000A435A71064A6B019B18DB799A07F9D5CC
:104AA00002E00120404200E0201C38BD3801002017
:104AB00000500041F8B50F1C161C141C0025002CDA
:104AC00007D07919221C002000F070FB2D18241A41
:104AD000F5E7301CF8BD30B50123A1B0C218013A8A
:104AE00014785A00002C0CD1C0239B001343694654
:104AF00000200B80FFF7DEFF431E9841C0B221B0BB
:104B000030BD8D1A002DEFDD6D46AC520133E5E767
:104B100008B50279002A04D100F0A6FC002809D1CA
:104B200006E00023022A06D100F01AFD002801D079
:104B300000F09CFA0123181C08BD10B5041C00F0FD
:104B40009BFB002802D0201C00F0AAFB10BD000037
:104B5000064B10B51B680024A34204D000F07AFA7B
:104B6000034B1C600124201C10BDC04628010020FE
:104B70003801002008B500F0D7F9024B01221A6075
:104B800008BDC0462801002008B502280CD1A22388
:104B9000114A40215B00D15400F06EFB002819D06F
:104BA0000E4800F02FFC15E0032806D10A4BB22274
:104BB000520080219954682207E001280AD1064B4F
:104BC00092225200802199542822FF32995C0220BF
:104BD0000143995408BDC0460050004184040020A0
:104BE000F0B5B24CA9B0268C1025F6B2002E1BD120
:104BF0002023A582A3820123A382A38B08273B4203
:104C00000AD08023A372301C311C00F037FAA84B65
:104C10009D72A84B1E60A783228B04231A4200D1E9
:104C20007BE1A24A938378E1A14B1A7AD2B2029235
:104C30002A4200D159E11D72002004A900F00AFBAC
:104C40009B4840234371049B60201D78284000D07E
:104C500024E15A78002A0CD108A9002D03D10D7047
:104C60004D70281C14E0944B1B78012B0BD00A705C
:104C70000CE0012A11D19B78012B0BD18F4B08A995
:104C80001B78012B01D10B7000E0087000204870E8
:104C90000222F8E0884B1870FDE0032A11D19A78BF
:104CA000012A05D1854B08A91A70087000F07EFA18
:104CB00004998B78002B00D0F5E07F4B01221A700D
:104CC000E9E0052A03D1987800F0F4FAEBE0062A2F
:104CD00000D0ABE0DD78022D60D1DB88019300F0DD
:104CE000BDFB071C00F0BEFB041C00F017FC001904
:104CF000039000F0B7FB041C00F010FC019A24188C
:104D00000934A24207D900F0ADFB041C00F006FCF8
:104D100024180934019405AD0924221C281C002103
:104D200001F0E3FA2C70039C02226B465A75093499
:104D30006B46DC82032206AB1A7001226B465A7660
:104D4000C0226B46DA7608ACFA2307AA1370221C3D
:104D500003CD03C20025137000F084FB854205D209
:104D60007A5D631901355A72EDB2F5E700F0D2FBB6
:104D70000025071C00F0D2FB854208D200F072FB30
:104D80007B5D6219101801354372EDB2F2E7019AAA
:104D9000802A00D980220020211C44E0222D02D14B
:104DA00000F0C0FB18E0212D1AD108AC0927002122
:104DB0003A1C201C01F099FA0123A370E37063717F
:104DC000222327706570A37100F0AAFB211CE071FB
:104DD0003A1C0020FFF76EFE431E9841C0B260E00F
:104DE000012D04D1DA883649112A1AD816E0032D8C
:104DF00070D19A78002A05D13249DA880B7893422B
:104E00000CD80EE0022A02D1D9882F4803E0012AEB
:104E100060D1D9882D48FFF75EFE42E0D2B2002A69
:104E200000D10A780020FFF745FE3CE0072A51D068
:104E3000082A02D100201F4924E0092A1ED1EA06CF
:104E400048D10420832100F019F90120822100F0CB
:104E500015F90220011C00F011F90320832100F054
:104E60000DF9049B9A78134B1A602A230222FF3310
:104E7000E2544A230122FF33E2540CE00A2A05D10E
:104E800013490020012200F091F90CE00B2A0AD10D
:104E90009A780F4B1A6000F0E9F804E0181CFFF74D
:104EA00037FE002816D000F07BF916E000500041D4
:104EB000FF5000413801002024010020340100206F
:104EC000E6670000E2670000C8670000D5670000E1
:104ED00030010020002000F0C5F90298402318425C
:104EE00003D00F490B7220234B7101239E430024F2
:104EF000E0B2002E11D0331C2341DA070AD509494C
:104F000063015B18DB799A0701D0FFF73DFE0123AF
:104F1000A3409E430134092CEAD129B0F0BDC0461C
:104F2000FF5000410051004130B53E4B2021DA696D
:104F300001200A43DA613C4B06241A7802431A70B6
:104F40003A4B0F221978914319701978214319703F
:104F500037490C782043087019780A401A701A787B
:104F600060210A431A70334B334A5A805A7852B23E
:104F7000002AFBDB314B01211A780A431A70997819
:104F80002E4AC807FBD41178022001432C48117027
:104F90000268510B1F221140914200D1052111409E
:104FA0008C011D8D27492940214319850468A10CD6
:104FB0000A401F2A00D11D221C8D1F210A408C434C
:104FC00022431A8502680721D20D0A408A4200D185
:104FD00003220A40188D11031B4A02400A431A8516
:104FE00019787F220A401A701A7804210A431A702D
:104FF000164A0C205A621989814319810023D1185D
:10500000002008602033802189018B42F7D1104BAA
:10501000C122920099580902090A995080221A6007
:1050200030BDC04600040040584400413C440041AB
:1050300059440041000C004006400000005000416F
:10504000246080003FF8FFFFFF8FFFFFAC040020CB
:1050500000E100E0044B01211A898A431A810822E9
:105060001A8304221A83704700500041024B5A6988
:10507000920B92035A617047AC040020F0B583296B
:1050800011D1021C3F4B083252014021D1543E4AFB
:105090004301D3185C693D493D4AC00121401018C5
:1050A000596118616DE002291FD13A4B4201364C1B
:1050B000D11803234B70A3185E68344D800135402E
:1050C000C026B60535435D60334D28181051586829
:1050D000324A02408020400302435A605A68920BD1
:1050E00092035A6040234B714BE0822914D1294C22
:1050F00042011319302159702349244C8A185569EB
:1051000023492C40C025AD05C0012C43081854612B
:10511000106180225A7134E0002932D11D494001CA
:1051200042181123184D8024537064424023937118
:1051300054712B185968154F4900490859605E6928
:105140001549760076085E615E683E40B446C0262A
:10515000B605644634435C605C6927403E435E614B
:10516000415158680D4901408020C00201435960F7
:105170005968890B89035960802340215B429171F2
:105180005371F0BD00500041AC040020FFFFFF8FC1
:105190003C010020FF5000413C030020FF3F00F095
:1051A000014B80229A717047FF50004170B50C4D41
:1051B000C301ED18061C281C141C01F08DF8094BC6
:1051C00076019E1935617169074A201C0A40726197
:1051D0007269A104920B890C92030A43726170BD3B
:1051E0003C010020AC040020FF3F00F070B5134CE0
:1051F000134A8101430165189D50D2185668114D1C
:1052000035408026B602354355605568AD0BAD0379
:1052100055600D4A9D180D4A9B1840225A712B1C4F
:10522000FF331A7A01231A42F9D0094A4001801843
:10523000C2791343C371605C70BDC0463C0300205B
:10524000AC040020FF3F00F000500041FF5000413F
:1052500000510041024B8001181808607047C04699
:105260003C030020034BC0B24001C018202343710F
:105270007047C04600510041034B40011818406878
:105280008004800C7047C046AC040020034B4001F2
:10529000C01840234371012303727047FF5000413F
:1052A000034B4001C01880238371022303727047AF
:1052B000FF5000410C4B02215A69920B92035A6134
:1052C0000A4B1A7A0A431A729979802252420A4387
:1052D0009A711A7A9107FCD580235B421843044BDC
:1052E000C0B298727047C046AC040020FF50004125
:1052F00000500041F8B5061C0C1C8F180025BC425C
:1053000007D0336821781B68301C984701342D186A
:10531000F5E7281CF8BD10B500214022041C00F060
:10532000E4FF0023201C2364636410BD026C10B5ED
:105330003F23541C2340446CA34201D08154036496
:1053400010BD0023036443647047436C026C9342B6
:1053500006D0C25C3F2101330B404364101C01E0C6
:10536000012040427047026C436CD01A00D5403097
:105370007047436C026C934201D0C05C01E0012095
:1053800040427047034B186C5B6CC01A3F231840B7
:105390007047C0463C040020054B196C5A6C914282
:1053A00002D05A6C985C01E0012040427047C04630
:1053B0003C04002013B502686B46D971073354686A
:1053C000191C0122A04716BD38B50D4B041C196CE1
:1053D0005A6C914211D05A6C3F219D5C5A6C02204C
:1053E00001320A405A64FFF705FB002803D0236806
:1053F000201C9B699847281C01E00120404238BDD1
:105400003C04002038B50C4D2C6C3F2301341C406B
:105410006B6C9C420FD00220FFF7ECFA002803D1FE
:105420000220FFF733FF06E00220FFF70FFB2B6C93
:105430002C64E854E9E738BD3C04002008B503209B
:10544000FFF77BFB08BD10B5041C0320FFF70CFB26
:10545000002801D10123636010BD0000004870479F
:10546000206800004220704710B50278041C437881
:10547000A12A08D1212B2CD1002017490722FFF7A0
:1054800019FB012026E0212A23D1202B0DD1002059
:10549000FFF7F2FE0E28FAD90023E218117A0E4A1D
:1054A00099540133072BF8D113E0222B11D18278C4
:1054B000094BDA7119689622D200914209D1DC7940
:1054C00001231C4003D1FA2000F016F901E000F09E
:1054D0001DF9002010BDC04604000020044B00222E
:1054E0005A60FA2292009A60024A08321A607047A3
:1054F00084040020F8670000036870B59B68041CF2
:105500000D1C98472368061C291CDB68201C984743
:10551000F0B270BD0048704708690000192070475C
:105520006520704708B5002002496522FFF7C2FADE
:1055300008BDC0462169000013B56B461870141CE5
:1055400000235A1CA34206D0131C8A18013A127871
:105550006846C254F5E769460420FFF785FA13BD93
:1055600008B50178031C4278A1290ED10223101C32
:105570009843012817D000209A4214D10A490122E9
:10558000FFF714FEFFF70CFE0CE0002021290AD1E2
:105590000B2A02D19A78054B03E00A2A03D1DA7864
:1055A000014B1A70012008BD0D0000200C000020E6
:1055B00008B502200822FFF7BFFF08BD10B58729F4
:1055C00002D97831C9B218E04BB2002B08DA803921
:1055D00001238B40191C037A1943017200210CE04E
:1055E000194B595C00292BD04BB2002B05DA037AFA
:1055F0000222134303727F231940837A8B4219D00E
:10560000C37A8B4216D0037B8B4213D0437B8B42F1
:1056100010D0837B8B420DD0C37B8B420AD00023FA
:10562000C218947A002C01D1917203E00133062B49
:10563000F6D105E0011C0831FFF7BAFF012002E0B6
:1056400001234360002010BD8868000010B5872941
:1056500002D97831C9B219E04BB2002B08DA80398F
:1056600001238B40191C037A8B43037200210DE048
:10567000114B595C002399421BD04BB2002B05DA29
:10568000037A0222934303727F231940031C0622EC
:10569000002904D09C7A8C4201D100249C72013AEA
:1056A000D2B20133002AF3D1011C0831FFF780FF89
:1056B0000123181C10BDC0468868000008B5011CF5
:1056C00000238372C372037343738373C3730372C0
:1056D0000831FFF76DFF08BD044B00221A70044B20
:1056E0005A60044A08321A607047C0469804002085
:1056F0009C0400206868000008B5024B1860024B4B
:105700009847C046100000200D6A0000024B01229D
:1057100052421A607047C0461000002002B4714621
:1057200049084900095C49008E4402BC7047C046E4
:10573000002934D00123002210B488422CD3012444
:105740002407A14204D2814202D209011B01F8E7D9
:10575000E400A14204D2814202D249005B00F8E792
:10576000884201D3401A1A434C08A04202D3001BBE
:105770005C0822438C08A04202D3001B9C082243F1
:10578000CC08A04202D3001BDC082243002803D02F
:105790001B0901D00909E3E7101C10BC7047002861
:1057A00001D00020C04307B4024802A14018029073
:1057B00003BDC046190000000029F0D003B5FFF773
:1057C000B9FF0EBC4243891A1847C0467047C0460D
:1057D0009E2110B5C905041C00F072FC002803D1FD
:1057E000201C00F0CDFB10BD9E21C905201C00F03F
:1057F00057FA00F0C5FB80231B06C018F3E7C0462C
:10580000F0B55F4656464D464446F0B44602450064
:10581000C00F85B00F1C760A2D0E804641D0FF2D9B
:1058200026D08024240400212643F6007F3D8946AB
:105830008B46F90F7C027800640A000E00918A46BC
:105840003CD0FF2834D080231B041C430023E400F9
:105850007F380193009F4346019A7B4049469C460E
:1058600011430F2900D971E0764F89007F58BF4658
:10587000002E3ED10822022391469B46D9E75A4684
:10588000341CC24601920199022937D0032900D164
:10589000CFE0012900D0ABE053460B4000220026A8
:1058A00032E0002E19D10421012289469346C0E737
:1058B000221C531E9A4102320192CBE70127019725
:1058C000002CC7D0201C00F005FC431F9C40762311
:1058D0005B420021181A0191BCE7301C00F0FAFB72
:1058E0007625431F9E406D4200232D1A99469B4604
:1058F0009FE70C23032199468B469AE7D446012360
:1059000067463B40FF2200267602D205700ADB077D
:105910001043184305B03CBC90469946A246AB469E
:10592000F0BD80260023F603FF22EDE700220026CB
:10593000EAE78020C00306423BD0044239D1061C6E
:1059400026437602760A009BFF22DDE7281A0390A1
:1059500076016401A64239D3361B1A2201230120A5
:10596000311C5B007600002901DBB44201D8361BF4
:105970000343013A002AF3DC741EA641341C1C4385
:10598000039A7F32002A27DD630704D00F232340C8
:10599000042B00D00434270103D52B4B039A1C4061
:1059A0008032FE2A0BDD012361460B40FF220026D8
:1059B000AAE706437602760A4346FF22A4E7A4013B
:1059C00001236746660AD2B23B409DE7039F1B2234
:1059D000013F03970023C2E77E23039F5B42DB1B4B
:1059E0001B2B07DD012361460B40002200268BE7BD
:1059F000D446C5E7221CDA40039B9E339C40231CFF
:105A00005C1EA34113435A0704D00F221A40042AF4
:105A100000D004335F0105D5012361460B4001220C
:105A2000002671E79E01624601231340760A002298
:105A30006AE78026F60326437602760A5346FF225B
:105A400062E7C04688690000FFFFFFF7F0B55F46D8
:105A500056464D464446F0B44402460083B00F1CFF
:105A6000640A360EC50F002E41D0FF2E22D08023AF
:105A70001B0400201C43E4007F3E82468046391C04
:105A80004B007F02C90F7F0A1B0E8B463BD0FF2BBA
:105A900034D0802212041743FF007F3B00215A4676
:105AA0006A40019252460A430F2A63D87A4892000C
:105AB00082589746002C3FD10822022392469846EE
:105AC000DDE70195404602282AD1019A01251540BB
:105AD000FF2300246402DB05600AED071843284316
:105AE00003B03CBC90469946A246AB46F0BD002CA4
:105AF00027D10420012282469046C0E7391C4A1E65
:105B000091410231CBE70121002FC8D0381C00F0B1
:105B1000E1FA431F9F4076235B421B1A0021BEE738
:105B2000032800D1AEE001284FD101984246104031
:105B3000C5B200230024CDE70C2303209A468046FB
:105B40009DE7201C00F0C6FA7626431F9C40764253
:105B50000023361A9A46984691E780240025E403EC
:105B6000FF23B7E75B463C1C01938846AAE73C1C31
:105B70008846A7E7250C24043A0C240C3F04F618A9
:105B80003F0C211C231C794353436F435543FB189F
:105B90000A0C9B18B1469F4202D980225202AD18CE
:105BA00009041A04090C521894011B0C611E8C4143
:105BB000920EED181443AD012C43230105D50122AB
:105BC00063080120144081441C434B467F33002B63
:105BD0002DDD600704D00F222240042A00D00434B7
:105BE000220103D52D4B1C404B468033FE2B17DD85
:105BF000019B01251D400024FF236BE78020C0038B
:105C0000044208D0074206D1041C3C436402640AE3
:105C10005D46FF235EE704436402640AFF2359E7FD
:105C20000198A4010125640ADBB2054052E77E23F6
:105C30005B424A469B1A1B2B05DD019B01251D403B
:105C40000024002346E7221CDA404B469E339C404A
:105C5000231C5C1EA3411343580704D00F221A4093
:105C6000042A00D004335A0105D5019B01251D40AB
:105C7000002401232EE701989C010125640A0540B8
:105C8000002327E78027FF03019B3C436402012593
:105C90001D40640AFF231DE7C8690000FFFFFFF7EE
:105CA000F8B5C20F430244004D024800240E161CF2
:105CB0009B09000EC90FAD09FF2800D17EE0012726
:105CC00079408A4258D0221A002A00DC89E0002854
:105CD0001BD1002D00D075E0580704D00F221A40C8
:105CE000042A00D00433590138D50134FF2C00D1E7
:105CF00083E09B0101225B0AE0B232405B02C405F3
:105D0000580AD20720431043F8BDFF2CE4D080216D
:105D1000C9040D431B2A00DD2DE1291C2020D140A0
:105D2000821A95406A1E95410D435B1B5801D3D5DD
:105D30009B019F09381C00F0CDF9421F9740944207
:105D400060DC141B1F231B1B3A1C9F40611C3B1C67
:105D5000CA405F1EBB4113430024BDE70122DB089C
:105D6000E0B23240FF2C04D1002B7ED08021C90349
:105D70000B435B025B0AC1E7211A002946DD0028BC
:105D800026D0FF2CA8D08020C00405431B2900DDAD
:105D9000EFE0281C2027C840791A8D40691E8D41EC
:105DA00005435B19590197D50134FF2C5CD0734929
:105DB00001221A400B405B0813438DE7002D00D0F1
:105DC0007FE77CE7013A002AAFD0FF2CA2D183E71E
:105DD000002D00D180E701390029E2D0FF2CD5D178
:105DE0007AE7002A1ED1621CD2B2012A4EDD5F1B67
:105DF0007A0126D5EF1A0E1C9CE701223240FF20C3
:105E000000237BE75D4BA41A3B4065E7002946D1A0
:105E1000611CC8B201282ADDFF2925D0EB185B08D8
:105E20000C1C59E7002C13D0FF2818D08024E40460
:105E3000524223431B2A4DDD0123EB1A041C0E1C86
:105E400074E7002F00D075E700220020002390E7C0
:105E5000002B3BD0D243002AEFD0FF28EAD12B1CE5
:105E6000FF240E1C38E70022FF20002346E7002C09
:105E70005AD1002B77D0002D00D12DE75B195801A6
:105E800000D429E73D4A0124134025E7002C15D111
:105E9000002B2FD1002DD7D02B1C0E1C1CE7002C63
:105EA00021D1002B53D0C943002904D0FF284BD067
:105EB0001B294FDD01235B19041C73E7002B22D142
:105EC000002DD0D02B1C0E1CFF2405E72B1C041C1E
:105ED0000E1C01E71C1C2026D440B21A93405A1E07
:105EE00093412343A9E7FF282ED08024E4044942AC
:105EF0002343DDE7002D00D1EEE65A1B500134D5D7
:105F0000EB1A0E1CE8E6FF24002D00D1E4E6802207
:105F1000DB08D203134204D0ED08154201D12B1C3B
:105F20000E1CDB00FF24D7E6002B0DD0FF24002D34
:105F300000D1D1E68022DB08D2031342F1D0ED0874
:105F40001542EED12B1CECE72B1CFF24C4E62B1CC6
:105F5000041CC1E61C1C2027CC40791A8B40591E1A
:105F60008B412343A7E72B1CB6E6131E00D0B3E6F4
:105F70006AE7012515E70125D7E6C046FFFFFFFBCD
:105F80004302590A4300C20F1B0E00207E2B0DDD79
:105F90009D2B0CDC802000040143952B0ADC96200D
:105FA000C31AD9404842002A00D1081C7047034B4D
:105FB000D018FBE7963B9940F4E7C046FFFFFF7F10
:105FC00010B5041E33D000F085F89E231B1A962BC3
:105FD00009DC083884406402640ADBB26402DB0531
:105FE000600A184310BD992B0ADD0522121A211CE4
:105FF000D1400A1C011C1B318C40611E8C41144392
:10600000052801DD421F9440144A2240610704D054
:106010000F210C40042C00D0043251010AD59F23DB
:10602000181AFF2816D09401640AC3B2D6E70023D9
:106030000024D3E7D208FF2B03D05402640ADBB25A
:10604000CCE7002A06D08024E40314436402640AE7
:10605000FF23C3E7FF230024C0E7C046FFFFFFFB89
:106060008446081C6146FFE71FB500F0C3F800280E
:1060700001D40021C8421FBD10B500F049F84042CC
:10608000013010BD10B500F0B5F8002801DB00208C
:1060900010BD012010BDC04610B500F0ABF80028BF
:1060A00001DD002010BD012010BDC04610B500F07C
:1060B00059F8002801DC002010BD012010BDC046A9
:1060C00010B500F04FF8002801DA002010BD0120C3
:1060D00010BDC0461C2101231B04984201D3000CB3
:1060E00010391B0A984201D3000A08391B0998424B
:1060F00001D30009043902A2105C40187047C04661
:106100000403020201010101000000000000000080
:106110004A02430270B55C0A550A43004A001B0E4E
:10612000C60F120EC90FFF2B05D0FF2A08D0012081
:1061300093420BD070BD0120002CFBD1FF2AF6D179
:106140000120002DF6D101209342F3D1AC42F1D1D0
:106150008E4205D0002BEDD1201C441EA041E9E762
:106160000020E7E74A024302F0B55C0A550A430003
:106170004A001B0EC60F120EC90FFF2B31D0FF2A8B
:1061800034D0002B16D1604260418446002A14D0DE
:10619000002820D18E4217D1934215DC04DBAC429B
:1061A00012D80020AC4212D270427041404201230A
:1061B00018430CE0002AEDD194466F426F416046CF
:1061C000002805D1002FE5D0704201231843F0BD0F
:1061D0000020002FFBD14842484140420123184390
:1061E000F5E7002CCBD002204042F0E7002DC8D0CC
:1061F000F9E7C0464A024302F0B55C0A550A43007B
:106200004A001B0EC60F120EC90FFF2B27D0FF2A04
:1062100029D0002B10D0002A15D194466F426F412F
:106220006046002815D00020002F04D14842484184
:10623000404201231843F0BD604260418446002A79
:10624000ECD00028F2D18E4211D0704201231843C5
:10625000F1E7002FF7D0704201231843EBE702204B
:10626000002CE8D1D3E70220002DE4D1D1E79342FE
:10627000EBDC04DBAC42E8D80020AC42DBD270425D
:106280007041404201231843D5E7C04670B50E4B1C
:106290000E4D0024ED1AAD101E1CAC4204D0A3001C
:1062A000F35898470134F8E700F028F8084B094DF7
:1062B0000024ED1AAD101E1CAC4204D0A300F3580C
:1062C00098470134F8E770BD140000201400002046
:1062D000140000202400002010B50023934203D0B6
:1062E000CC5CC4540133F9E710BD031C82189342FF
:1062F00002D019700133FAE770470000F8B5C046C4
:10630000F8BC08BC9E467047F8B5C046F8BC08BC4F
:106310009E467047000000000A00000002000000D6
:106320001C000000FF00FFFFFFFF0A00000000004C
:106330000B000000020000001C000000FF00FFFF37
:10634000FFFF0B0000000000080000000400000038
:106350001C000000FF000000000010000000000012
:1063600009000000040000001C000000FF00010004
:1063700001000900000000000E0000000400000001
:106380001C000000FF00000300030E0000000000DE
:106390000F000000040000001C000000FF000103CB
:1063A00001030F00000000001400000005000000C1
:1063B0001C000000FF0006000600040000000000B2
:1063C00015000000050000001C000000FF00070091
:1063D00007000500000000000600000004000000A7
:1063E0001C000000FF00000100010400000000008C
:1063F00007000000040000001C000000FF00010175
:10640000010105000000000012000000040000006F
:106410001C000000FF00020002000200000000005B
:1064200010000000040000001C000000FF0000023B
:106430000002000001000000130000000400000042
:106440001C000000FF000103010303000000000026
:1064500011000000040000000C000000FF00010219
:10646000FFFF0100FF00000000000000FF0000002F
:1064700000000000FF00FFFFFFFFFF000000000022
:10648000030000000100000002000000FF00FFFF09
:10649000FFFFFF00000000001600000002000000E7
:1064A00004000000FF00FFFFFFFF060000000000E7
:1064B000170000000200000004000000FF00FFFFC2
:1064C000FFFF0700000000000C00000003000000B8
:1064D00004000000FF00FFFFFFFF0C00FF000000B2
:1064E00000000000FF00000000000000FF00FFFFB0
:1064F000FFFFFF00010000000B0000000300000090
:1065000004000000FF00FFFFFFFF0B000100000080
:106510000A0000000300000004000000FF00FFFF6D
:10652000FFFF0A00FF00000000000000FF00000065
:1065300000000000FF00FFFFFFFFFF00FF00000062
:1065400000000000FF00000000000000FF00FFFF4F
:10655000FFFFFF000000000002000000010000003B
:10656000020000000000FFFFFFFF0200010000002A
:106570000800000001000000020000000200FFFF10
:10658000FFFF0800010000000900000001000000FA
:10659000020000000300FFFFFFFF090000000000F1
:1065A0000400000001000000020000000400FFFFE2
:1065B000FFFF0400000000000500000001000000D3
:1065C000020000000500FFFFFFFF050000000000C3
:1065D0000200000001000000020000000A00FFFFAE
:1065E000FFFF020001000000030000000B0000009C
:1065F00004000000FF00FFFFFFFFFF00000000009D
:106600001B0000000B00000004000000FF00FFFF63
:10661000FFFFFF00000000001C000000060000005B
:1066200000000000FF00FFFFFFFFFF000000000070
:10663000180000000600000000000000FF00FFFF3F
:10664000FFFFFF000000000019000000060000002E
:1066500000000000FF00FFFFFFFFFF00010000003F
:10666000160000000300000000000000FF00FFFF14
:10667000FFFFFF0001000000170000000300000002
:1066800000000000FF00FFFFFFFFFF000000000010
:10669000160000000200000000000000FF00FFFFE5
:1066A000FFFFFF00000000001700000002000000D4
:1066B00000000000FF00FFFFFFFFFF0000000000E0
:1066C000130000000200000000000000FF00FFFFB8
:1066D000FFFFFF00000000001000000002000000AB
:1066E00000000000FF00FFFFFFFFFF0000000000B0
:1066F000120000000200000000000000FF00FFFF89
:10670000FFFFFF0000000000110000000200000079
:1067100000000000FF00FFFFFFFFFF00000000007F
:106720000D000000040000000C000000FF00050048
:10673000FFFF0D0000000000150000000500000034
:106740000C000000FF000700FFFFFF00000000003A
:1067500006000000040000000C000000FF00000123
:10676000FFFFFF0000000000070000000400000021
:106770000C000000FF000101FFFFFF00000000000F
:106780000200000001000000020000001400FFFFF2
:10679000FFFF0200000000000000000000000000F9
:1067A00095480000F5520000774800008B48000033
:1067B000814800006D480000C949000059480000A8
:1067C000554800000000000041726475696E6F203A
:1067D0005A65726F0041726475696E6F2053726CF6
:1067E00000000403090412011001EF020140032A12
